{
  "_format": "hh-sol-artifact-1",
  "contractName": "Election",
  "sourceName": "contracts/Election.sol",
  "abi": [
    {
      "inputs": [],
      "stateMutability": "nonpayable",
      "type": "constructor"
    },
    {
      "anonymous": false,
      "inputs": [
        {
          "indexed": false,
          "internalType": "string",
          "name": "name",
          "type": "string"
        },
        {
          "indexed": false,
          "internalType": "uint256",
          "name": "voteCount",
          "type": "uint256"
        }
      ],
      "name": "ElectResults",
      "type": "event"
    },
    {
      "inputs": [
        {
          "internalType": "uint256",
          "name": "candidateId",
          "type": "uint256"
        }
      ],
      "name": "addCandidate",
      "outputs": [],
      "stateMutability": "payable",
      "type": "function"
    },
    {
      "inputs": [
        {
          "internalType": "address",
          "name": "voter",
          "type": "address"
        }
      ],
      "name": "authorize",
      "outputs": [],
      "stateMutability": "payable",
      "type": "function"
    },
    {
      "inputs": [
        {
          "internalType": "uint256",
          "name": "",
          "type": "uint256"
        }
      ],
      "name": "candids",
      "outputs": [
        {
          "internalType": "uint256",
          "name": "name",
          "type": "uint256"
        },
        {
          "internalType": "uint256",
          "name": "voteCount",
          "type": "uint256"
        }
      ],
      "stateMutability": "view",
      "type": "function"
    },
    {
      "inputs": [],
      "name": "chairperson",
      "outputs": [
        {
          "internalType": "address",
          "name": "",
          "type": "address"
        }
      ],
      "stateMutability": "view",
      "type": "function"
    },
    {
      "inputs": [],
      "name": "getCandidateCount",
      "outputs": [
        {
          "internalType": "uint256",
          "name": "",
          "type": "uint256"
        }
      ],
      "stateMutability": "view",
      "type": "function"
    },
    {
      "inputs": [
        {
          "internalType": "address",
          "name": "voter_address",
          "type": "address"
        }
      ],
      "name": "getVotersWeight",
      "outputs": [
        {
          "internalType": "uint256",
          "name": "",
          "type": "uint256"
        }
      ],
      "stateMutability": "view",
      "type": "function"
    },
    {
      "inputs": [],
      "name": "getWinner",
      "outputs": [],
      "stateMutability": "view",
      "type": "function"
    },
    {
      "inputs": [],
      "name": "name",
      "outputs": [
        {
          "internalType": "string",
          "name": "",
          "type": "string"
        }
      ],
      "stateMutability": "view",
      "type": "function"
    },
    {
      "inputs": [],
      "name": "showCandidate",
      "outputs": [],
      "stateMutability": "view",
      "type": "function"
    },
    {
      "inputs": [
        {
          "internalType": "uint256",
          "name": "voteIndex",
          "type": "uint256"
        }
      ],
      "name": "voteCandidate",
      "outputs": [],
      "stateMutability": "nonpayable",
      "type": "function"
    },
    {
      "inputs": [
        {
          "internalType": "address",
          "name": "",
          "type": "address"
        }
      ],
      "name": "voters",
      "outputs": [
        {
          "internalType": "bool",
          "name": "voted",
          "type": "bool"
        },
        {
          "internalType": "uint256",
          "name": "voteIndex",
          "type": "uint256"
        },
        {
          "internalType": "uint256",
          "name": "weight",
          "type": "uint256"
        }
      ],
      "stateMutability": "view",
      "type": "function"
    }
  ],
  "bytecode": "0x608060405234801561001057600080fd5b5033600160006101000a81548173ffffffffffffffffffffffffffffffffffffffff021916908373ffffffffffffffffffffffffffffffffffffffff160217905550611012806100616000396000f3fe60806040526004361061009c5760003560e01c80638e7ea5b2116100645780638e7ea5b214610188578063a3ec138d1461019f578063b6a5d7de146101de578063bbe4524e146101fa578063e2121b8914610238578063e844d0971461024f5761009c565b806306fdde03146100a15780632e4176cf146100cc57806330a56347146100f757806341a59cc8146101225780638c08a4dc1461015f575b600080fd5b3480156100ad57600080fd5b506100b661026b565b6040516100c39190610c74565b60405180910390f35b3480156100d857600080fd5b506100e16102f9565b6040516100ee9190610c22565b60405180910390f35b34801561010357600080fd5b5061010c61031f565b6040516101199190610d14565b60405180910390f35b34801561012e57600080fd5b5061014960048036038101906101449190610b24565b61032c565b6040516101569190610d14565b60405180910390f35b34801561016b57600080fd5b5061018660048036038101906101819190610b4d565b6103df565b005b34801561019457600080fd5b5061019d61063e565b005b3480156101ab57600080fd5b506101c660048036038101906101c19190610b24565b6106be565b6040516101d593929190610c3d565b60405180910390f35b6101f860048036038101906101f39190610b24565b6106f5565b005b34801561020657600080fd5b50610221600480360381019061021c9190610b4d565b6107f4565b60405161022f929190610d2f565b60405180910390f35b34801561024457600080fd5b5061024d610828565b005b61026960048036038101906102649190610b4d565b6108a3565b005b6002805461027890610e45565b80601f01602080910402602001604051908101604052809291908181526020018280546102a490610e45565b80156102f15780601f106102c6576101008083540402835291602001916102f1565b820191906000526020600020905b8154815290600101906020018083116102d457829003601f168201915b505050505081565b600160009054906101000a900473ffffffffffffffffffffffffffffffffffffffff1681565b6000600480549050905090565b600061036c6040518060400160405280601581526020017f67657474696e6720766f746572732077656967687400000000000000000000008152506108fd565b6000600360008473ffffffffffffffffffffffffffffffffffffffff1673ffffffffffffffffffffffffffffffffffffffff1681526020019081526020016000206002015490506103d66040518060600160405280602d8152602001610fb0602d91398285610996565b80915050919050565b600360003373ffffffffffffffffffffffffffffffffffffffff1673ffffffffffffffffffffffffffffffffffffffff16815260200190815260200160002060000160009054906101000a900460ff161561046f576040517f08c379a000000000000000000000000000000000000000000000000000000000815260040161046690610cf4565b60405180910390fd5b6000600360003373ffffffffffffffffffffffffffffffffffffffff1673ffffffffffffffffffffffffffffffffffffffff1681526020019081526020016000206002015414156104f5576040517f08c379a00000000000000000000000000000000000000000000000000000000081526004016104ec90610cd4565b60405180910390fd5b6001600360003373ffffffffffffffffffffffffffffffffffffffff1673ffffffffffffffffffffffffffffffffffffffff16815260200190815260200160002060000160006101000a81548160ff02191690831515021790555080600360003373ffffffffffffffffffffffffffffffffffffffff1673ffffffffffffffffffffffffffffffffffffffff16815260200190815260200160002060010181905550600360003373ffffffffffffffffffffffffffffffffffffffff1673ffffffffffffffffffffffffffffffffffffffff1681526020019081526020016000206002015460048281548110610614577f4e487b7100000000000000000000000000000000000000000000000000000000600052603260045260246000fd5b906000526020600020906002020160010160008282546106349190610d74565b9250508190555050565b600160009054906101000a900473ffffffffffffffffffffffffffffffffffffffff1673ffffffffffffffffffffffffffffffffffffffff163373ffffffffffffffffffffffffffffffffffffffff161461069857600080fd5b60005b6004805490508110156106bb5780806106b390610e77565b91505061069b565b50565b60036020528060005260406000206000915090508060000160009054906101000a900460ff16908060010154908060020154905083565b600160009054906101000a900473ffffffffffffffffffffffffffffffffffffffff1673ffffffffffffffffffffffffffffffffffffffff163373ffffffffffffffffffffffffffffffffffffffff161461074f57600080fd5b600360008273ffffffffffffffffffffffffffffffffffffffff1673ffffffffffffffffffffffffffffffffffffffff16815260200190815260200160002060000160009054906101000a900460ff16156107a957600080fd5b6001600360008373ffffffffffffffffffffffffffffffffffffffff1673ffffffffffffffffffffffffffffffffffffffff1681526020019081526020016000206002018190555050565b6004818154811061080457600080fd5b90600052602060002090600202016000915090508060000154908060010154905082565b60005b6004805490508110156108a05761088d8160048381548110610876577f4e487b7100000000000000000000000000000000000000000000000000000000600052603260045260246000fd5b906000526020600020906002020160000154610a35565b808061089890610e77565b91505061082b565b50565b60046040518060400160405280838152602001600081525090806001815401808255809150506001900390600052602060002090600202016000909190919091506000820151816000015560208201518160010155505050565b610993816040516024016109119190610c74565b6040516020818303038152906040527f41304fac000000000000000000000000000000000000000000000000000000007bffffffffffffffffffffffffffffffffffffffffffffffffffffffff19166020820180517bffffffffffffffffffffffffffffffffffffffffffffffffffffffff8381831617835250505050610ad1565b50565b610a308383836040516024016109ae93929190610c96565b6040516020818303038152906040527fe3849f79000000000000000000000000000000000000000000000000000000007bffffffffffffffffffffffffffffffffffffffffffffffffffffffff19166020820180517bffffffffffffffffffffffffffffffffffffffffffffffffffffffff8381831617835250505050610ad1565b505050565b610acd8282604051602401610a4b929190610d2f565b6040516020818303038152906040527f6c0f6980000000000000000000000000000000000000000000000000000000007bffffffffffffffffffffffffffffffffffffffffffffffffffffffff19166020820180517bffffffffffffffffffffffffffffffffffffffffffffffffffffffff8381831617835250505050610ad1565b5050565b60008151905060006a636f6e736f6c652e6c6f679050602083016000808483855afa5050505050565b600081359050610b0981610f81565b92915050565b600081359050610b1e81610f98565b92915050565b600060208284031215610b3657600080fd5b6000610b4484828501610afa565b91505092915050565b600060208284031215610b5f57600080fd5b6000610b6d84828501610b0f565b91505092915050565b610b7f81610dca565b82525050565b610b8e81610ddc565b82525050565b6000610b9f82610d58565b610ba98185610d63565b9350610bb9818560208601610e12565b610bc281610f1e565b840191505092915050565b6000610bda601483610d63565b9150610be582610f2f565b602082019050919050565b6000610bfd601183610d63565b9150610c0882610f58565b602082019050919050565b610c1c81610e08565b82525050565b6000602082019050610c376000830184610b76565b92915050565b6000606082019050610c526000830186610b85565b610c5f6020830185610c13565b610c6c6040830184610c13565b949350505050565b60006020820190508181036000830152610c8e8184610b94565b905092915050565b60006060820190508181036000830152610cb08186610b94565b9050610cbf6020830185610c13565b610ccc6040830184610b76565b949350505050565b60006020820190508181036000830152610ced81610bcd565b9050919050565b60006020820190508181036000830152610d0d81610bf0565b9050919050565b6000602082019050610d296000830184610c13565b92915050565b6000604082019050610d446000830185610c13565b610d516020830184610c13565b9392505050565b600081519050919050565b600082825260208201905092915050565b6000610d7f82610e08565b9150610d8a83610e08565b9250827fffffffffffffffffffffffffffffffffffffffffffffffffffffffffffffffff03821115610dbf57610dbe610ec0565b5b828201905092915050565b6000610dd582610de8565b9050919050565b60008115159050919050565b600073ffffffffffffffffffffffffffffffffffffffff82169050919050565b6000819050919050565b60005b83811015610e30578082015181840152602081019050610e15565b83811115610e3f576000848401525b50505050565b60006002820490506001821680610e5d57607f821691505b60208210811415610e7157610e70610eef565b5b50919050565b6000610e8282610e08565b91507fffffffffffffffffffffffffffffffffffffffffffffffffffffffffffffffff821415610eb557610eb4610ec0565b5b600182019050919050565b7f4e487b7100000000000000000000000000000000000000000000000000000000600052601160045260246000fd5b7f4e487b7100000000000000000000000000000000000000000000000000000000600052602260045260246000fd5b6000601f19601f8301169050919050565b7f486173206e6f20726967687420746f20766f7465000000000000000000000000600082015250565b7f48617320616c726561647920766f746564000000000000000000000000000000600082015250565b610f8a81610dca565b8114610f9557600080fd5b50565b610fa181610e08565b8114610fac57600080fd5b5056fe766f746572732077656967687420697320257320616e6420766f74657273206164647265737320697320257320a2646970667358221220630a83f39417cb9a6b6ab4431cd5db49aa63d728e2733cb5b1983473d3a3f09464736f6c63430008040033",
  "linkReferences": {},
  "deployedLinkReferences": {}
}